:040000009EEF00F07F
:100008000D82F2A40AEF00F00CEF00F05DEF00F0B3
:10001800020E0518D8A413EF00F015EF00F057EF03
:1000280000F00B509008076E0C50D8A0E82A010881
:10003800086E0750015C08500258D8A026EF00F05F
:1000480028EF00F057EF00F0900E015C010E025807
:10005800D8B031EF00F033EF00F036EF00F08B8EC0
:1000680057EF00F08B9E000E026E000E016ED890C6
:100078000B340B6E0C340C6E900E0B5C010E0C588E
:10008800D8A049EF00F04BEF00F057EF00F0030E57
:10009800056E000E0C6E010E0B6E000E026E000E49
:1000A800016E57EF00F0014A022AD768B10ED66EEA
:1000B800F2949EAC62EF00F064EF00F09CEF00F069
:1000C800C450046E036AC3500324036E000E042058
:1000D800046E045009E1680E035CD8A076EF00F0C6
:1000E80078EF00F098EF00F00504D8A47EEF00F058
:1000F80080EF00F08CEF00F0020E056E000E026E2D
:10010800000E016E000E0C6E010E0B6E9AEF00F0E1
:100118000550D8A492EF00F094EF00F09AEF00F0A9
:10012800030E056E9AEF00F0010E056E9E9CC282CA
:100138000D921100E7EF00F0000E806E000E826E47
:10014800000E946E9280F28EF28C010EC26E0E0E2C
:10015800C16E8D0EC06E9D8C9F8C970ED56EF28AE7
:10016800F2849D9AD768B10ED66EF184D08EC28281
:10017800C80E00D0E82EFDD7C8EF00F08B9EC8EF60
:1001880000F08B8EC8EF00F00550096E0A6A0A501D
:10019800000AD8B4D2EF00F0C8EF00F00950000A06
:1001A800D8B4C8EF00F0010AD8B4C2EF00F0030ACF
:1001B800D8B4C8EF00F0010AD8B4C5EF00F0C8EF12
:1001C80000F09EEF00F0000EF66E020EF76E000EC5
:1001D800F86E0900F5CF0BF00900F5CF0CF0066AB0
:1001E800056A046A036A026A016A0D900D92000E9C
:0A01F800F86E0001A0EF00F0010016
:020000040020DA
:08000000FFFFFFFFFFFFFFFF00
:020000040030CA
:0E000000FFC20F1FFF8385FF0FC00FE00F40F0
:00000001FF
