:0400000033EF00F0EA
:100008000482F2A40AEF00F00CEF00F010EF00F009
:10001800D768B10ED66EF2949EAC15EF00F017EFCC
:1000280000F031EF00F0C450026E016AC3500124A1
:10003800016E000E0220026E025009E1680E015C9A
:10004800D8A029EF00F02BEF00F02EEF00F08B8EF8
:100058002FEF00F08B9E9E9CC2820492110055EFF8
:1000680000F0000E806E000E826E000E946E92807C
:10007800F28EF28C010EC26E0E0EC16E8D0EC06E27
:100088009D8C9F8C970ED56EF28AF2849D9AD768C4
:10009800B10ED66EF184D08EC28251EF00F033EFEC
:1000A80000F0036A026A016A04900492000135EFC5
:0200B80000F056
:020000040020DA
:08000000FFFFFFFFFFFFFFFF00
:020000040030CA
:0E000000FFC20F1FFF8385FF0FC00FE00F40F0
:00000001FF
