:0400000027EF00F0F6
:100008000382F2A40AEF00F00CEF00F025EF00F0F5
:1000180001500210D8A413EF00F015EF00F01CEF08
:1000280000F08B8E000E026E010E016E21EF00F0C3
:100038008B9E000E026E000E016ED768B10ED66E52
:10004800F2940392110045EF00F0000E806E000E4E
:10005800826E000EC26E0F0EC16E000E946E9280FC
:10006800970ED56EF28EF28CF28AF2849D9C9D9A40
:10007800D768B10ED66EF184D08E41EF00F027EF2D
:1000880000F0026A016A03900392000129EF00F070
:020000040020DA
:08000000FFFFFFFFFFFFFFFF00
:020000040030CA
:0E000000FFC20F1FFF8385FF0FC00FE00F40F0
:00000001FF
