:0400000091EF00F08C
:100008001082F2A40AEF00F00CEF00F05CEF00F0B1
:100018000704D8A412EF00F014EF00F056EF00F038
:100028000E5090080A6E0F50D8A0E82A01080B6EEF
:100038000A50035C0B500458D8A025EF00F027EFB6
:1000480000F056EF00F0900E035C010E0458D8B093
:1000580030EF00F032EF00F035EF00F08B8E56EF06
:1000680000F08B9E000E046E000E036ED8900E34C6
:100078000E6E0F340F6E900E0E5C010E0F58D8A046
:1000880048EF00F04AEF00F056EF00F0020E076E5E
:10009800000E0F6E010E0E6E000E046E000E036E43
:1000A80056EF00F0034A042AD768B10ED66EF294D0
:1000B8009EAC61EF00F063EF00F08FEF00F0C450EA
:1000C800066E056AC3500524056E000E0620066EEE
:1000D800065009E1680E055CD8A075EF00F077EFCF
:1000E80000F08BEF00F00750D8A47DEF00F07FEF11
:1000F80000F08DEF00F0010E076E000E046E000E8A
:10010800036E000E0F6E010E0E6E8DEF00F0000EE6
:10011800076E9E9CC28210921100D2EF00F0000E72
:10012800806E000E826E000E946E9280F28EF28CBB
:10013800010EC26E0E0EC16E8D0EC06E9D8C9F8C10
:10014800970ED56EF28AF2849D9AD768B10ED66E54
:10015800F184D08EC282B7EF00F08B9EB7EF00F02B
:100168008B8EB7EF00F007500C6E0D6A0D50000A29
:10017800D8B4C1EF00F0B7EF00F00C50000AD8B4C3
:10018800B1EF00F0010AD8B4B7EF00F0030AD8B411
:10019800B4EF00F0B7EF00F091EF00F0D60EF66E76
:1001A800010EF76E000EF86E0900F5CF0EF009008B
:1001B800F5CF0FF000EE01F0090EEE6AE806FDE15A
:1001C80010901092000EF86E000193EF00F00100FD
:020000040020DA
:08000000FFFFFFFFFFFFFFFF00
:020000040030CA
:0E000000FFC20F1FFF8385FF0FC00FE00F40F0
:00000001FF
